{
  "contractName": "BossCoin",
  "abi": [
    {
      "inputs": [],
      "stateMutability": "nonpayable",
      "type": "constructor"
    },
    {
      "anonymous": false,
      "inputs": [
        {
          "indexed": true,
          "internalType": "address",
          "name": "owner",
          "type": "address"
        },
        {
          "indexed": true,
          "internalType": "address",
          "name": "spender",
          "type": "address"
        },
        {
          "indexed": false,
          "internalType": "uint256",
          "name": "value",
          "type": "uint256"
        }
      ],
      "name": "Approval",
      "type": "event"
    },
    {
      "anonymous": false,
      "inputs": [
        {
          "indexed": true,
          "internalType": "address",
          "name": "_from",
          "type": "address"
        },
        {
          "indexed": true,
          "internalType": "address",
          "name": "_to",
          "type": "address"
        },
        {
          "indexed": false,
          "internalType": "uint256",
          "name": "_value",
          "type": "uint256"
        }
      ],
      "name": "CoinTransferFromMinter",
      "type": "event"
    },
    {
      "anonymous": false,
      "inputs": [
        {
          "indexed": true,
          "internalType": "address",
          "name": "_from",
          "type": "address"
        },
        {
          "indexed": true,
          "internalType": "address",
          "name": "_to",
          "type": "address"
        },
        {
          "indexed": false,
          "internalType": "uint256",
          "name": "_value",
          "type": "uint256"
        }
      ],
      "name": "CoinTransferFromUser",
      "type": "event"
    },
    {
      "anonymous": false,
      "inputs": [
        {
          "indexed": true,
          "internalType": "address",
          "name": "_to",
          "type": "address"
        }
      ],
      "name": "FinalBossWebRegistration",
      "type": "event"
    },
    {
      "anonymous": false,
      "inputs": [
        {
          "indexed": true,
          "internalType": "address",
          "name": "_to",
          "type": "address"
        }
      ],
      "name": "ParadoxTrainingWin",
      "type": "event"
    },
    {
      "anonymous": false,
      "inputs": [
        {
          "indexed": true,
          "internalType": "address",
          "name": "from",
          "type": "address"
        },
        {
          "indexed": true,
          "internalType": "address",
          "name": "to",
          "type": "address"
        },
        {
          "indexed": false,
          "internalType": "uint256",
          "name": "value",
          "type": "uint256"
        }
      ],
      "name": "Transfer",
      "type": "event"
    },
    {
      "inputs": [
        {
          "internalType": "address",
          "name": "",
          "type": "address"
        },
        {
          "internalType": "address",
          "name": "",
          "type": "address"
        }
      ],
      "name": "allowance",
      "outputs": [
        {
          "internalType": "uint256",
          "name": "",
          "type": "uint256"
        }
      ],
      "stateMutability": "view",
      "type": "function",
      "constant": true
    },
    {
      "inputs": [
        {
          "internalType": "address",
          "name": "",
          "type": "address"
        }
      ],
      "name": "balances",
      "outputs": [
        {
          "internalType": "uint256",
          "name": "",
          "type": "uint256"
        }
      ],
      "stateMutability": "view",
      "type": "function",
      "constant": true
    },
    {
      "inputs": [],
      "name": "decimals",
      "outputs": [
        {
          "internalType": "uint8",
          "name": "",
          "type": "uint8"
        }
      ],
      "stateMutability": "view",
      "type": "function",
      "constant": true
    },
    {
      "inputs": [],
      "name": "minter",
      "outputs": [
        {
          "internalType": "address",
          "name": "",
          "type": "address"
        }
      ],
      "stateMutability": "view",
      "type": "function",
      "constant": true
    },
    {
      "inputs": [],
      "name": "name",
      "outputs": [
        {
          "internalType": "string",
          "name": "",
          "type": "string"
        }
      ],
      "stateMutability": "view",
      "type": "function",
      "constant": true
    },
    {
      "inputs": [],
      "name": "symbol",
      "outputs": [
        {
          "internalType": "string",
          "name": "",
          "type": "string"
        }
      ],
      "stateMutability": "view",
      "type": "function",
      "constant": true
    },
    {
      "inputs": [],
      "name": "totalSupply",
      "outputs": [
        {
          "internalType": "uint256",
          "name": "",
          "type": "uint256"
        }
      ],
      "stateMutability": "view",
      "type": "function",
      "constant": true
    },
    {
      "inputs": [
        {
          "internalType": "address",
          "name": "spender",
          "type": "address"
        },
        {
          "internalType": "uint256",
          "name": "amount",
          "type": "uint256"
        }
      ],
      "name": "approve",
      "outputs": [
        {
          "internalType": "bool",
          "name": "",
          "type": "bool"
        }
      ],
      "stateMutability": "nonpayable",
      "type": "function"
    },
    {
      "inputs": [
        {
          "internalType": "address",
          "name": "account",
          "type": "address"
        }
      ],
      "name": "balanceOf",
      "outputs": [
        {
          "internalType": "uint256",
          "name": "",
          "type": "uint256"
        }
      ],
      "stateMutability": "view",
      "type": "function",
      "constant": true
    },
    {
      "inputs": [
        {
          "internalType": "address",
          "name": "recipient",
          "type": "address"
        },
        {
          "internalType": "uint256",
          "name": "amount",
          "type": "uint256"
        }
      ],
      "name": "transfer",
      "outputs": [
        {
          "internalType": "bool",
          "name": "",
          "type": "bool"
        }
      ],
      "stateMutability": "nonpayable",
      "type": "function"
    },
    {
      "inputs": [
        {
          "internalType": "address",
          "name": "sender",
          "type": "address"
        },
        {
          "internalType": "address",
          "name": "recipient",
          "type": "address"
        },
        {
          "internalType": "uint256",
          "name": "amount",
          "type": "uint256"
        }
      ],
      "name": "transferFrom",
      "outputs": [
        {
          "internalType": "bool",
          "name": "",
          "type": "bool"
        }
      ],
      "stateMutability": "nonpayable",
      "type": "function"
    },
    {
      "inputs": [
        {
          "internalType": "uint256",
          "name": "amount",
          "type": "uint256"
        }
      ],
      "name": "mint",
      "outputs": [],
      "stateMutability": "nonpayable",
      "type": "function"
    },
    {
      "inputs": [
        {
          "internalType": "uint256",
          "name": "amount",
          "type": "uint256"
        }
      ],
      "name": "burn",
      "outputs": [],
      "stateMutability": "nonpayable",
      "type": "function"
    },
    {
      "inputs": [
        {
          "internalType": "address",
          "name": "reciever",
          "type": "address"
        }
      ],
      "name": "trainingLevelWin",
      "outputs": [],
      "stateMutability": "nonpayable",
      "type": "function"
    }
  ],
  "bytecode": "0x60806040526040518060400160405280600881526020017f426f7373436f696e000000000000000000000000000000000000000000000000815250600490805190602001906200005192919062000179565b506040518060400160405280600581526020017f626f737363000000000000000000000000000000000000000000000000000000815250600590805190602001906200009f92919062000179565b506000600660006101000a81548160ff021916908360ff160217905550348015620000c957600080fd5b50326000806101000a81548173ffffffffffffffffffffffffffffffffffffffff021916908373ffffffffffffffffffffffffffffffffffffffff16021790555063072efd40600260008060009054906101000a900473ffffffffffffffffffffffffffffffffffffffff1673ffffffffffffffffffffffffffffffffffffffff1673ffffffffffffffffffffffffffffffffffffffff168152602001908152602001600020819055506200028d565b828054620001879062000258565b90600052602060002090601f016020900481019282620001ab5760008555620001f7565b82601f10620001c657805160ff1916838001178555620001f7565b82800160010185558215620001f7579182015b82811115620001f6578251825591602001919060010190620001d9565b5b5090506200020691906200020a565b5090565b5b80821115620002255760008160009055506001016200020b565b5090565b7f4e487b7100000000000000000000000000000000000000000000000000000000600052602260045260246000fd5b600060028204905060018216806200027157607f821691505b60208210810362000287576200028662000229565b5b50919050565b611096806200029d6000396000f3fe608060405234801561001057600080fd5b50600436106100ea5760003560e01c806342966c681161008c578063a0712d6811610066578063a0712d6814610261578063a9059cbb1461027d578063dd62ed3e146102ad578063eb52ed88146102dd576100ea565b806342966c68146101f757806370a082311461021357806395d89b4114610243576100ea565b806318160ddd116100c857806318160ddd1461015b57806323b872dd1461017957806327e235e3146101a9578063313ce567146101d9576100ea565b806306fdde03146100ef578063075461721461010d578063095ea7b31461012b575b600080fd5b6100f76102f9565b6040516101049190610bd7565b60405180910390f35b610115610387565b6040516101229190610c3a565b60405180910390f35b61014560048036038101906101409190610cbc565b6103ab565b6040516101529190610d17565b60405180910390f35b61016361049d565b6040516101709190610d41565b60405180910390f35b610193600480360381019061018e9190610d5c565b6104a3565b6040516101a09190610d17565b60405180910390f35b6101c360048036038101906101be9190610daf565b6105c1565b6040516101d09190610d41565b60405180910390f35b6101e16105d9565b6040516101ee9190610df8565b60405180910390f35b610211600480360381019061020c9190610e13565b6105ec565b005b61022d60048036038101906102289190610daf565b610705565b60405161023a9190610d41565b60405180910390f35b61024b61074e565b6040516102589190610bd7565b60405180910390f35b61027b60048036038101906102769190610e13565b6107dc565b005b61029760048036038101906102929190610cbc565b6108f5565b6040516102a49190610d17565b60405180910390f35b6102c760048036038101906102c29190610e40565b610a53565b6040516102d49190610d41565b60405180910390f35b6102f760048036038101906102f29190610daf565b610a78565b005b6004805461030690610eaf565b80601f016020809104026020016040519081016040528092919081815260200182805461033290610eaf565b801561037f5780601f106103545761010080835404028352916020019161037f565b820191906000526020600020905b81548152906001019060200180831161036257829003601f168201915b505050505081565b60008054906101000a900473ffffffffffffffffffffffffffffffffffffffff1681565b600081600360003373ffffffffffffffffffffffffffffffffffffffff1673ffffffffffffffffffffffffffffffffffffffff16815260200190815260200160002060008573ffffffffffffffffffffffffffffffffffffffff1673ffffffffffffffffffffffffffffffffffffffff168152602001908152602001600020819055508273ffffffffffffffffffffffffffffffffffffffff163373ffffffffffffffffffffffffffffffffffffffff167f8c5be1e5ebec7d5bd14f71427d1e84f3dd0314c0f7b2291e5b200ac8c7c3b9258460405161048b9190610d41565b60405180910390a36001905092915050565b60015481565b600081600260008673ffffffffffffffffffffffffffffffffffffffff1673ffffffffffffffffffffffffffffffffffffffff16815260200190815260200160002060008282546104f49190610f0f565b9250508190555081600260008573ffffffffffffffffffffffffffffffffffffffff1673ffffffffffffffffffffffffffffffffffffffff168152602001908152602001600020600082825461054a9190610f43565b925050819055508273ffffffffffffffffffffffffffffffffffffffff168473ffffffffffffffffffffffffffffffffffffffff167fddf252ad1be2c89b69c2b068fc378daa952ba7f163c4a11628f55a4df523b3ef846040516105ae9190610d41565b60405180910390a3600190509392505050565b60026020528060005260406000206000915090505481565b600660009054906101000a900460ff1681565b80600260008060009054906101000a900473ffffffffffffffffffffffffffffffffffffffff1673ffffffffffffffffffffffffffffffffffffffff1673ffffffffffffffffffffffffffffffffffffffff168152602001908152602001600020600082825461065c9190610f0f565b9250508190555080600160008282546106759190610f0f565b92505081905550600073ffffffffffffffffffffffffffffffffffffffff1660008054906101000a900473ffffffffffffffffffffffffffffffffffffffff1673ffffffffffffffffffffffffffffffffffffffff167fddf252ad1be2c89b69c2b068fc378daa952ba7f163c4a11628f55a4df523b3ef836040516106fa9190610d41565b60405180910390a350565b6000600260008373ffffffffffffffffffffffffffffffffffffffff1673ffffffffffffffffffffffffffffffffffffffff168152602001908152602001600020549050919050565b6005805461075b90610eaf565b80601f016020809104026020016040519081016040528092919081815260200182805461078790610eaf565b80156107d45780601f106107a9576101008083540402835291602001916107d4565b820191906000526020600020905b8154815290600101906020018083116107b757829003601f168201915b505050505081565b80600260008060009054906101000a900473ffffffffffffffffffffffffffffffffffffffff1673ffffffffffffffffffffffffffffffffffffffff1673ffffffffffffffffffffffffffffffffffffffff168152602001908152602001600020600082825461084c9190610f43565b9250508190555080600160008282546108659190610f43565b9250508190555060008054906101000a900473ffffffffffffffffffffffffffffffffffffffff1673ffffffffffffffffffffffffffffffffffffffff16600073ffffffffffffffffffffffffffffffffffffffff167fddf252ad1be2c89b69c2b068fc378daa952ba7f163c4a11628f55a4df523b3ef836040516108ea9190610d41565b60405180910390a350565b600081600260008060009054906101000a900473ffffffffffffffffffffffffffffffffffffffff1673ffffffffffffffffffffffffffffffffffffffff1673ffffffffffffffffffffffffffffffffffffffff16815260200190815260200160002060008282546109679190610f0f565b9250508190555081600260008573ffffffffffffffffffffffffffffffffffffffff1673ffffffffffffffffffffffffffffffffffffffff16815260200190815260200160002060008282546109bd9190610f43565b925050819055508273ffffffffffffffffffffffffffffffffffffffff1660008054906101000a900473ffffffffffffffffffffffffffffffffffffffff1673ffffffffffffffffffffffffffffffffffffffff167fddf252ad1be2c89b69c2b068fc378daa952ba7f163c4a11628f55a4df523b3ef84604051610a419190610d41565b60405180910390a36001905092915050565b6003602052816000526040600020602052806000526040600020600091509150505481565b3073ffffffffffffffffffffffffffffffffffffffff1663a9059cbb82600a6040518363ffffffff1660e01b8152600401610ab4929190610fde565b6020604051808303816000875af1158015610ad3573d6000803e3d6000fd5b505050506040513d601f19601f82011682018060405250810190610af79190611033565b508073ffffffffffffffffffffffffffffffffffffffff167fe377e41a6266b9e40bd1b61e0fdb26eee6d0142682ad3a76751e8bddd466937960405160405180910390a250565b600081519050919050565b600082825260208201905092915050565b60005b83811015610b78578082015181840152602081019050610b5d565b83811115610b87576000848401525b50505050565b6000601f19601f8301169050919050565b6000610ba982610b3e565b610bb38185610b49565b9350610bc3818560208601610b5a565b610bcc81610b8d565b840191505092915050565b60006020820190508181036000830152610bf18184610b9e565b905092915050565b600073ffffffffffffffffffffffffffffffffffffffff82169050919050565b6000610c2482610bf9565b9050919050565b610c3481610c19565b82525050565b6000602082019050610c4f6000830184610c2b565b92915050565b600080fd5b610c6381610c19565b8114610c6e57600080fd5b50565b600081359050610c8081610c5a565b92915050565b6000819050919050565b610c9981610c86565b8114610ca457600080fd5b50565b600081359050610cb681610c90565b92915050565b60008060408385031215610cd357610cd2610c55565b5b6000610ce185828601610c71565b9250506020610cf285828601610ca7565b9150509250929050565b60008115159050919050565b610d1181610cfc565b82525050565b6000602082019050610d2c6000830184610d08565b92915050565b610d3b81610c86565b82525050565b6000602082019050610d566000830184610d32565b92915050565b600080600060608486031215610d7557610d74610c55565b5b6000610d8386828701610c71565b9350506020610d9486828701610c71565b9250506040610da586828701610ca7565b9150509250925092565b600060208284031215610dc557610dc4610c55565b5b6000610dd384828501610c71565b91505092915050565b600060ff82169050919050565b610df281610ddc565b82525050565b6000602082019050610e0d6000830184610de9565b92915050565b600060208284031215610e2957610e28610c55565b5b6000610e3784828501610ca7565b91505092915050565b60008060408385031215610e5757610e56610c55565b5b6000610e6585828601610c71565b9250506020610e7685828601610c71565b9150509250929050565b7f4e487b7100000000000000000000000000000000000000000000000000000000600052602260045260246000fd5b60006002820490506001821680610ec757607f821691505b602082108103610eda57610ed9610e80565b5b50919050565b7f4e487b7100000000000000000000000000000000000000000000000000000000600052601160045260246000fd5b6000610f1a82610c86565b9150610f2583610c86565b925082821015610f3857610f37610ee0565b5b828203905092915050565b6000610f4e82610c86565b9150610f5983610c86565b9250827fffffffffffffffffffffffffffffffffffffffffffffffffffffffffffffffff03821115610f8e57610f8d610ee0565b5b828201905092915050565b6000819050919050565b6000819050919050565b6000610fc8610fc3610fbe84610f99565b610fa3565b610c86565b9050919050565b610fd881610fad565b82525050565b6000604082019050610ff36000830185610c2b565b6110006020830184610fcf565b9392505050565b61101081610cfc565b811461101b57600080fd5b50565b60008151905061102d81611007565b92915050565b60006020828403121561104957611048610c55565b5b60006110578482850161101e565b9150509291505056fea264697066735822122092729713643212fafb7f1f34eb963c09c8809a13b0df026dfb9ac971f5c2334764736f6c634300080d0033",
  "immutableReferences": {},
  "source": "// SPDX-License-Identifier: MIT\npragma solidity >=0.4.22 <0.9.0;\n\nimport \"./ConvertLib.sol\";\nimport \"./ErrorsLib.sol\";\nimport \"./ERC20.sol\";\n\ncontract BossCoin is ERC20 {\n\n  address public minter;\n  uint public totalSupply;\n  mapping (address => uint) public balances;\n  mapping(address => mapping(address => uint)) public allowance;\n  string public name = \"BossCoin\";\n  string public symbol = \"bossc\";\n\n  // 18 is default amount of decimals\n  // uint8 public decimals = 18;\n  uint8 public decimals = 0;\n\n  event CoinTransferFromMinter(address indexed _from, address indexed _to, uint256 _value);\n  event CoinTransferFromUser(address indexed _from, address indexed _to, uint256 _value);\n  event FinalBossWebRegistration(address indexed _to);\n  event ParadoxTrainingWin(address indexed _to);\n\n  constructor() {\n    minter = tx.origin;\n    // 120520000 = Amount of ETH in circulation as of 11/2022\n    balances[minter] = 120520000;\n  }\n\n  function approve(address spender, uint amount) external returns (bool) {\n        allowance[msg.sender][spender] = amount;\n        emit Approval(msg.sender, spender, amount);\n        return true;\n  }\n\n  function balanceOf(address account) public view returns (uint) {\n        return balances[account];\n  }\n\n  function transfer(address recipient, uint amount) external returns (bool) {\n        balances[minter] -= amount;\n        balances[recipient] += amount;\n        emit Transfer(minter, recipient, amount);\n        return true;\n  }\n\n  function transferFrom(\n        address sender,\n        address recipient,\n        uint amount\n    ) external returns (bool) {\n        // allowance[sender][msg.sender] -= amount;\n        balances[sender] -= amount;\n        balances[recipient] += amount;\n        emit Transfer(sender, recipient, amount);\n        return true;\n    }\n  \n  function mint(uint amount) external {\n      balances[minter] += amount;\n      totalSupply += amount;\n      emit Transfer(address(0), minter, amount);\n  }\n\n  function burn(uint amount) external {\n      balances[minter] -= amount;\n      totalSupply -= amount;\n      emit Transfer(minter, address(0), amount);\n  }\n\n  // Paradox Hazard Methods --\n\n  // When a Gamer wins the training level, they earn 1 baus.\n  // TODO: User can only earn this once.\n  // TODO: Test \n  // For Ganache, use accounts[8] for testing purpurses.\n  function trainingLevelWin(address reciever) public {\n    this.transfer(reciever, 10);\n    emit ParadoxTrainingWin(reciever);\n  }\n\n}\n",
  "sourcePath": "/Users/ferro/Desktop/BOSSCOIN/contracts/BossCoin.sol",
  "compiler": {
    "name": "solc",
    "version": "0.8.13+commit.abaa5c0e.Emscripten.clang"
  },
  "schemaVersion": "3.4.10",
  "updatedAt": "2022-11-11T17:30:54.209Z",
  "networkType": "ethereum",
  "devdoc": {
    "kind": "dev",
    "methods": {},
    "version": 1
  },
  "userdoc": {
    "kind": "user",
    "methods": {},
    "version": 1
  }
}