{
  "contractName": "BossCoin",
  "abi": [
    {
      "inputs": [],
      "stateMutability": "nonpayable",
      "type": "constructor"
    },
    {
      "anonymous": false,
      "inputs": [
        {
          "indexed": true,
          "internalType": "address",
          "name": "_from",
          "type": "address"
        },
        {
          "indexed": true,
          "internalType": "address",
          "name": "_to",
          "type": "address"
        },
        {
          "indexed": false,
          "internalType": "uint256",
          "name": "_value",
          "type": "uint256"
        }
      ],
      "name": "Transfer",
      "type": "event"
    },
    {
      "inputs": [],
      "name": "minter",
      "outputs": [
        {
          "internalType": "address",
          "name": "",
          "type": "address"
        }
      ],
      "stateMutability": "view",
      "type": "function",
      "constant": true
    },
    {
      "inputs": [
        {
          "internalType": "address",
          "name": "addr",
          "type": "address"
        }
      ],
      "name": "getBalance",
      "outputs": [
        {
          "internalType": "uint256",
          "name": "",
          "type": "uint256"
        }
      ],
      "stateMutability": "view",
      "type": "function",
      "constant": true
    },
    {
      "inputs": [
        {
          "internalType": "address",
          "name": "reciever",
          "type": "address"
        },
        {
          "internalType": "uint256",
          "name": "amount",
          "type": "uint256"
        }
      ],
      "name": "sendCoin",
      "outputs": [
        {
          "internalType": "bool",
          "name": "sufficient",
          "type": "bool"
        }
      ],
      "stateMutability": "nonpayable",
      "type": "function"
    },
    {
      "inputs": [
        {
          "internalType": "address",
          "name": "reciever",
          "type": "address"
        },
        {
          "internalType": "uint256",
          "name": "amount",
          "type": "uint256"
        }
      ],
      "name": "mintCoins",
      "outputs": [
        {
          "internalType": "uint256",
          "name": "",
          "type": "uint256"
        }
      ],
      "stateMutability": "nonpayable",
      "type": "function"
    }
  ],
  "bytecode": "0x608060405234801561001057600080fd5b50336000806101000a81548173ffffffffffffffffffffffffffffffffffffffff021916908373ffffffffffffffffffffffffffffffffffffffff16021790555062989680600160008060009054906101000a900473ffffffffffffffffffffffffffffffffffffffff1673ffffffffffffffffffffffffffffffffffffffff1673ffffffffffffffffffffffffffffffffffffffff16815260200190815260200160002081905550610652806100c86000396000f3fe608060405234801561001057600080fd5b506004361061004c5760003560e01c8063075461721461005157806390b98a111461006f578063b7fde9da1461009f578063f8b2cb4f146100cf575b600080fd5b6100596100ff565b6040516100669190610414565b60405180910390f35b61008960048036038101906100849190610496565b610123565b60405161009691906104f1565b60405180910390f35b6100b960048036038101906100b49190610496565b610291565b6040516100c6919061051b565b60405180910390f35b6100e960048036038101906100e49190610536565b61038a565b6040516100f6919061051b565b60405180910390f35b60008054906101000a900473ffffffffffffffffffffffffffffffffffffffff1681565b600081600160003373ffffffffffffffffffffffffffffffffffffffff1673ffffffffffffffffffffffffffffffffffffffff168152602001908152602001600020541015610175576000905061028b565b81600160003373ffffffffffffffffffffffffffffffffffffffff1673ffffffffffffffffffffffffffffffffffffffff16815260200190815260200160002060008282546101c49190610592565b9250508190555081600160008573ffffffffffffffffffffffffffffffffffffffff1673ffffffffffffffffffffffffffffffffffffffff168152602001908152602001600020600082825461021a91906105c6565b925050819055508273ffffffffffffffffffffffffffffffffffffffff163373ffffffffffffffffffffffffffffffffffffffff167fddf252ad1be2c89b69c2b068fc378daa952ba7f163c4a11628f55a4df523b3ef8460405161027e919061051b565b60405180910390a3600190505b92915050565b60008060009054906101000a900473ffffffffffffffffffffffffffffffffffffffff1673ffffffffffffffffffffffffffffffffffffffff163373ffffffffffffffffffffffffffffffffffffffff16146102ec57600080fd5b81600160008573ffffffffffffffffffffffffffffffffffffffff1673ffffffffffffffffffffffffffffffffffffffff168152602001908152602001600020600082825461033b91906105c6565b92505081905550600160008473ffffffffffffffffffffffffffffffffffffffff1673ffffffffffffffffffffffffffffffffffffffff16815260200190815260200160002054905092915050565b6000600160008373ffffffffffffffffffffffffffffffffffffffff1673ffffffffffffffffffffffffffffffffffffffff168152602001908152602001600020549050919050565b600073ffffffffffffffffffffffffffffffffffffffff82169050919050565b60006103fe826103d3565b9050919050565b61040e816103f3565b82525050565b60006020820190506104296000830184610405565b92915050565b600080fd5b61043d816103f3565b811461044857600080fd5b50565b60008135905061045a81610434565b92915050565b6000819050919050565b61047381610460565b811461047e57600080fd5b50565b6000813590506104908161046a565b92915050565b600080604083850312156104ad576104ac61042f565b5b60006104bb8582860161044b565b92505060206104cc85828601610481565b9150509250929050565b60008115159050919050565b6104eb816104d6565b82525050565b600060208201905061050660008301846104e2565b92915050565b61051581610460565b82525050565b6000602082019050610530600083018461050c565b92915050565b60006020828403121561054c5761054b61042f565b5b600061055a8482850161044b565b91505092915050565b7f4e487b7100000000000000000000000000000000000000000000000000000000600052601160045260246000fd5b600061059d82610460565b91506105a883610460565b9250828210156105bb576105ba610563565b5b828203905092915050565b60006105d182610460565b91506105dc83610460565b9250827fffffffffffffffffffffffffffffffffffffffffffffffffffffffffffffffff0382111561061157610610610563565b5b82820190509291505056fea2646970667358221220846f470965909edb90ff40d0694e9fe441a2e8c20034639cba732e312141fe6664736f6c634300080d0033",
  "immutableReferences": {},
  "source": "// SPDX-License-Identifier: MIT\npragma solidity >=0.4.22 <0.9.0;\n\nimport \"./ConvertLib.sol\";\n\ncontract BossCoin {\n  address public minter;\n  mapping (address => uint) balances;\n\n  event Transfer(address indexed _from, address indexed _to, uint256 _value);\n\n  constructor() {\n    minter = msg.sender;\n    balances[minter] = 10000000;\n  }\n\n\tfunction getBalance(address addr) public view returns(uint) {\n\t\treturn balances[addr];\n\t}\n\n  function sendCoin(address reciever, uint amount) public returns(bool sufficient) {\n    if(balances[msg.sender] < amount) return false;\n    balances[msg.sender] -= amount;\n    balances[reciever] += amount;\n    emit Transfer(msg.sender, reciever, amount);\n    return true;\n  }\n\n  // function finalBossWebRegistration(address reciever, uint amount) public returns(bool sufficient) {\n\n  // }\n\n  function mintCoins(address reciever, uint amount) public returns(uint) {\n    require(msg.sender == minter);\n    balances[reciever] += amount;\n    return balances[reciever];\n  }\n}\n",
  "sourcePath": "/Users/ferro/Desktop/BOSSCOIN/contracts/BossCoin.sol",
  "compiler": {
    "name": "solc",
    "version": "0.8.13+commit.abaa5c0e.Emscripten.clang"
  },
  "schemaVersion": "3.4.10",
  "updatedAt": "2022-11-02T22:28:28.757Z",
  "networkType": "ethereum",
  "devdoc": {
    "kind": "dev",
    "methods": {},
    "version": 1
  },
  "userdoc": {
    "kind": "user",
    "methods": {},
    "version": 1
  }
}