{
  "contractName": "BossCoin",
  "abi": [
    {
      "inputs": [],
      "stateMutability": "nonpayable",
      "type": "constructor"
    },
    {
      "anonymous": false,
      "inputs": [
        {
          "indexed": true,
          "internalType": "address",
          "name": "owner",
          "type": "address"
        },
        {
          "indexed": true,
          "internalType": "address",
          "name": "spender",
          "type": "address"
        },
        {
          "indexed": false,
          "internalType": "uint256",
          "name": "value",
          "type": "uint256"
        }
      ],
      "name": "Approval",
      "type": "event"
    },
    {
      "anonymous": false,
      "inputs": [
        {
          "indexed": true,
          "internalType": "address",
          "name": "_to",
          "type": "address"
        }
      ],
      "name": "FinalBossWebRegistration",
      "type": "event"
    },
    {
      "anonymous": false,
      "inputs": [
        {
          "indexed": true,
          "internalType": "address",
          "name": "_to",
          "type": "address"
        }
      ],
      "name": "ParadoxTrainingWin",
      "type": "event"
    },
    {
      "anonymous": false,
      "inputs": [
        {
          "indexed": true,
          "internalType": "address",
          "name": "from",
          "type": "address"
        },
        {
          "indexed": true,
          "internalType": "address",
          "name": "to",
          "type": "address"
        },
        {
          "indexed": false,
          "internalType": "uint256",
          "name": "value",
          "type": "uint256"
        }
      ],
      "name": "Transfer",
      "type": "event"
    },
    {
      "inputs": [
        {
          "internalType": "address",
          "name": "",
          "type": "address"
        },
        {
          "internalType": "address",
          "name": "",
          "type": "address"
        }
      ],
      "name": "allowance",
      "outputs": [
        {
          "internalType": "uint256",
          "name": "",
          "type": "uint256"
        }
      ],
      "stateMutability": "view",
      "type": "function",
      "constant": true
    },
    {
      "inputs": [
        {
          "internalType": "address",
          "name": "",
          "type": "address"
        }
      ],
      "name": "balances",
      "outputs": [
        {
          "internalType": "uint256",
          "name": "",
          "type": "uint256"
        }
      ],
      "stateMutability": "view",
      "type": "function",
      "constant": true
    },
    {
      "inputs": [],
      "name": "decimals",
      "outputs": [
        {
          "internalType": "uint8",
          "name": "",
          "type": "uint8"
        }
      ],
      "stateMutability": "view",
      "type": "function",
      "constant": true
    },
    {
      "inputs": [],
      "name": "minter",
      "outputs": [
        {
          "internalType": "address",
          "name": "",
          "type": "address"
        }
      ],
      "stateMutability": "view",
      "type": "function",
      "constant": true
    },
    {
      "inputs": [],
      "name": "name",
      "outputs": [
        {
          "internalType": "string",
          "name": "",
          "type": "string"
        }
      ],
      "stateMutability": "view",
      "type": "function",
      "constant": true
    },
    {
      "inputs": [],
      "name": "symbol",
      "outputs": [
        {
          "internalType": "string",
          "name": "",
          "type": "string"
        }
      ],
      "stateMutability": "view",
      "type": "function",
      "constant": true
    },
    {
      "inputs": [],
      "name": "totalSupply",
      "outputs": [
        {
          "internalType": "uint256",
          "name": "",
          "type": "uint256"
        }
      ],
      "stateMutability": "view",
      "type": "function",
      "constant": true
    },
    {
      "inputs": [
        {
          "internalType": "address",
          "name": "spender",
          "type": "address"
        },
        {
          "internalType": "uint256",
          "name": "amount",
          "type": "uint256"
        }
      ],
      "name": "approve",
      "outputs": [
        {
          "internalType": "bool",
          "name": "",
          "type": "bool"
        }
      ],
      "stateMutability": "nonpayable",
      "type": "function"
    },
    {
      "inputs": [
        {
          "internalType": "address",
          "name": "account",
          "type": "address"
        }
      ],
      "name": "balanceOf",
      "outputs": [
        {
          "internalType": "uint256",
          "name": "",
          "type": "uint256"
        }
      ],
      "stateMutability": "view",
      "type": "function",
      "constant": true
    },
    {
      "inputs": [
        {
          "internalType": "address",
          "name": "recipient",
          "type": "address"
        },
        {
          "internalType": "uint256",
          "name": "amount",
          "type": "uint256"
        }
      ],
      "name": "transfer",
      "outputs": [
        {
          "internalType": "bool",
          "name": "",
          "type": "bool"
        }
      ],
      "stateMutability": "nonpayable",
      "type": "function"
    },
    {
      "inputs": [
        {
          "internalType": "address",
          "name": "sender",
          "type": "address"
        },
        {
          "internalType": "address",
          "name": "recipient",
          "type": "address"
        },
        {
          "internalType": "uint256",
          "name": "amount",
          "type": "uint256"
        }
      ],
      "name": "transferFrom",
      "outputs": [
        {
          "internalType": "bool",
          "name": "",
          "type": "bool"
        }
      ],
      "stateMutability": "nonpayable",
      "type": "function"
    },
    {
      "inputs": [
        {
          "internalType": "uint256",
          "name": "amount",
          "type": "uint256"
        }
      ],
      "name": "mint",
      "outputs": [
        {
          "internalType": "uint256",
          "name": "",
          "type": "uint256"
        }
      ],
      "stateMutability": "nonpayable",
      "type": "function"
    },
    {
      "inputs": [
        {
          "internalType": "uint256",
          "name": "amount",
          "type": "uint256"
        }
      ],
      "name": "burn",
      "outputs": [
        {
          "internalType": "uint256",
          "name": "",
          "type": "uint256"
        }
      ],
      "stateMutability": "nonpayable",
      "type": "function"
    },
    {
      "inputs": [
        {
          "internalType": "address",
          "name": "reciever",
          "type": "address"
        }
      ],
      "name": "trainingLevelWin",
      "outputs": [],
      "stateMutability": "nonpayable",
      "type": "function"
    }
  ],
  "bytecode": "0x60806040526040518060400160405280600881526020017f426f7373436f696e000000000000000000000000000000000000000000000000815250600390805190602001906200005192919062000179565b506040518060400160405280600581526020017f626f737363000000000000000000000000000000000000000000000000000000815250600490805190602001906200009f92919062000179565b506000600560006101000a81548160ff021916908360ff160217905550348015620000c957600080fd5b50326000806101000a81548173ffffffffffffffffffffffffffffffffffffffff021916908373ffffffffffffffffffffffffffffffffffffffff1602179055506302625a00600160008060009054906101000a900473ffffffffffffffffffffffffffffffffffffffff1673ffffffffffffffffffffffffffffffffffffffff1673ffffffffffffffffffffffffffffffffffffffff168152602001908152602001600020819055506200028d565b828054620001879062000258565b90600052602060002090601f016020900481019282620001ab5760008555620001f7565b82601f10620001c657805160ff1916838001178555620001f7565b82800160010185558215620001f7579182015b82811115620001f6578251825591602001919060010190620001d9565b5b5090506200020691906200020a565b5090565b5b80821115620002255760008160009055506001016200020b565b5090565b7f4e487b7100000000000000000000000000000000000000000000000000000000600052602260045260246000fd5b600060028204905060018216806200027157607f821691505b60208210810362000287576200028662000229565b5b50919050565b6111bc806200029d6000396000f3fe608060405234801561001057600080fd5b50600436106100ea5760003560e01c806342966c681161008c578063a0712d6811610066578063a0712d6814610275578063a9059cbb146102a5578063dd62ed3e146102d5578063eb52ed8814610305576100ea565b806342966c68146101f757806370a082311461022757806395d89b4114610257576100ea565b806318160ddd116100c857806318160ddd1461015b57806323b872dd1461017957806327e235e3146101a9578063313ce567146101d9576100ea565b806306fdde03146100ef578063075461721461010d578063095ea7b31461012b575b600080fd5b6100f7610321565b6040516101049190610cfd565b60405180910390f35b6101156103af565b6040516101229190610d60565b60405180910390f35b61014560048036038101906101409190610de2565b6103d3565b6040516101529190610e3d565b60405180910390f35b6101636104c5565b6040516101709190610e67565b60405180910390f35b610193600480360381019061018e9190610e82565b61052d565b6040516101a09190610e3d565b60405180910390f35b6101c360048036038101906101be9190610ed5565b61064b565b6040516101d09190610e67565b60405180910390f35b6101e1610663565b6040516101ee9190610f1e565b60405180910390f35b610211600480360381019061020c9190610f39565b610676565b60405161021e9190610e67565b60405180910390f35b610241600480360381019061023c9190610ed5565b6107dc565b60405161024e9190610e67565b60405180910390f35b61025f610825565b60405161026c9190610cfd565b60405180910390f35b61028f600480360381019061028a9190610f39565b6108b3565b60405161029c9190610e67565b60405180910390f35b6102bf60048036038101906102ba9190610de2565b610a1b565b6040516102cc9190610e3d565b60405180910390f35b6102ef60048036038101906102ea9190610f66565b610b79565b6040516102fc9190610e67565b60405180910390f35b61031f600480360381019061031a9190610ed5565b610b9e565b005b6003805461032e90610fd5565b80601f016020809104026020016040519081016040528092919081815260200182805461035a90610fd5565b80156103a75780601f1061037c576101008083540402835291602001916103a7565b820191906000526020600020905b81548152906001019060200180831161038a57829003601f168201915b505050505081565b60008054906101000a900473ffffffffffffffffffffffffffffffffffffffff1681565b600081600260003373ffffffffffffffffffffffffffffffffffffffff1673ffffffffffffffffffffffffffffffffffffffff16815260200190815260200160002060008573ffffffffffffffffffffffffffffffffffffffff1673ffffffffffffffffffffffffffffffffffffffff168152602001908152602001600020819055508273ffffffffffffffffffffffffffffffffffffffff163373ffffffffffffffffffffffffffffffffffffffff167f8c5be1e5ebec7d5bd14f71427d1e84f3dd0314c0f7b2291e5b200ac8c7c3b925846040516104b39190610e67565b60405180910390a36001905092915050565b6000600160008060009054906101000a900473ffffffffffffffffffffffffffffffffffffffff1673ffffffffffffffffffffffffffffffffffffffff1673ffffffffffffffffffffffffffffffffffffffff16815260200190815260200160002054905090565b600081600160008673ffffffffffffffffffffffffffffffffffffffff1673ffffffffffffffffffffffffffffffffffffffff168152602001908152602001600020600082825461057e9190611035565b9250508190555081600160008573ffffffffffffffffffffffffffffffffffffffff1673ffffffffffffffffffffffffffffffffffffffff16815260200190815260200160002060008282546105d49190611069565b925050819055508273ffffffffffffffffffffffffffffffffffffffff168473ffffffffffffffffffffffffffffffffffffffff167fddf252ad1be2c89b69c2b068fc378daa952ba7f163c4a11628f55a4df523b3ef846040516106389190610e67565b60405180910390a3600190509392505050565b60016020528060005260406000206000915090505481565b600560009054906101000a900460ff1681565b60008073ffffffffffffffffffffffffffffffffffffffff1660008054906101000a900473ffffffffffffffffffffffffffffffffffffffff1673ffffffffffffffffffffffffffffffffffffffff167fddf252ad1be2c89b69c2b068fc378daa952ba7f163c4a11628f55a4df523b3ef846040516106f59190610e67565b60405180910390a381600160008060009054906101000a900473ffffffffffffffffffffffffffffffffffffffff1673ffffffffffffffffffffffffffffffffffffffff1673ffffffffffffffffffffffffffffffffffffffff168152602001908152602001600020600082825461076d9190611035565b92505081905550600160008060009054906101000a900473ffffffffffffffffffffffffffffffffffffffff1673ffffffffffffffffffffffffffffffffffffffff1673ffffffffffffffffffffffffffffffffffffffff168152602001908152602001600020549050919050565b6000600160008373ffffffffffffffffffffffffffffffffffffffff1673ffffffffffffffffffffffffffffffffffffffff168152602001908152602001600020549050919050565b6004805461083290610fd5565b80601f016020809104026020016040519081016040528092919081815260200182805461085e90610fd5565b80156108ab5780601f10610880576101008083540402835291602001916108ab565b820191906000526020600020905b81548152906001019060200180831161088e57829003601f168201915b505050505081565b60008060009054906101000a900473ffffffffffffffffffffffffffffffffffffffff1673ffffffffffffffffffffffffffffffffffffffff16600073ffffffffffffffffffffffffffffffffffffffff167fddf252ad1be2c89b69c2b068fc378daa952ba7f163c4a11628f55a4df523b3ef846040516109349190610e67565b60405180910390a381600160008060009054906101000a900473ffffffffffffffffffffffffffffffffffffffff1673ffffffffffffffffffffffffffffffffffffffff1673ffffffffffffffffffffffffffffffffffffffff16815260200190815260200160002060008282546109ac9190611069565b92505081905550600160008060009054906101000a900473ffffffffffffffffffffffffffffffffffffffff1673ffffffffffffffffffffffffffffffffffffffff1673ffffffffffffffffffffffffffffffffffffffff168152602001908152602001600020549050919050565b600081600160008060009054906101000a900473ffffffffffffffffffffffffffffffffffffffff1673ffffffffffffffffffffffffffffffffffffffff1673ffffffffffffffffffffffffffffffffffffffff1681526020019081526020016000206000828254610a8d9190611035565b9250508190555081600160008573ffffffffffffffffffffffffffffffffffffffff1673ffffffffffffffffffffffffffffffffffffffff1681526020019081526020016000206000828254610ae39190611069565b925050819055508273ffffffffffffffffffffffffffffffffffffffff1660008054906101000a900473ffffffffffffffffffffffffffffffffffffffff1673ffffffffffffffffffffffffffffffffffffffff167fddf252ad1be2c89b69c2b068fc378daa952ba7f163c4a11628f55a4df523b3ef84604051610b679190610e67565b60405180910390a36001905092915050565b6002602052816000526040600020602052806000526040600020600091509150505481565b3073ffffffffffffffffffffffffffffffffffffffff1663a9059cbb82600a6040518363ffffffff1660e01b8152600401610bda929190611104565b6020604051808303816000875af1158015610bf9573d6000803e3d6000fd5b505050506040513d601f19601f82011682018060405250810190610c1d9190611159565b508073ffffffffffffffffffffffffffffffffffffffff167fe377e41a6266b9e40bd1b61e0fdb26eee6d0142682ad3a76751e8bddd466937960405160405180910390a250565b600081519050919050565b600082825260208201905092915050565b60005b83811015610c9e578082015181840152602081019050610c83565b83811115610cad576000848401525b50505050565b6000601f19601f8301169050919050565b6000610ccf82610c64565b610cd98185610c6f565b9350610ce9818560208601610c80565b610cf281610cb3565b840191505092915050565b60006020820190508181036000830152610d178184610cc4565b905092915050565b600073ffffffffffffffffffffffffffffffffffffffff82169050919050565b6000610d4a82610d1f565b9050919050565b610d5a81610d3f565b82525050565b6000602082019050610d756000830184610d51565b92915050565b600080fd5b610d8981610d3f565b8114610d9457600080fd5b50565b600081359050610da681610d80565b92915050565b6000819050919050565b610dbf81610dac565b8114610dca57600080fd5b50565b600081359050610ddc81610db6565b92915050565b60008060408385031215610df957610df8610d7b565b5b6000610e0785828601610d97565b9250506020610e1885828601610dcd565b9150509250929050565b60008115159050919050565b610e3781610e22565b82525050565b6000602082019050610e526000830184610e2e565b92915050565b610e6181610dac565b82525050565b6000602082019050610e7c6000830184610e58565b92915050565b600080600060608486031215610e9b57610e9a610d7b565b5b6000610ea986828701610d97565b9350506020610eba86828701610d97565b9250506040610ecb86828701610dcd565b9150509250925092565b600060208284031215610eeb57610eea610d7b565b5b6000610ef984828501610d97565b91505092915050565b600060ff82169050919050565b610f1881610f02565b82525050565b6000602082019050610f336000830184610f0f565b92915050565b600060208284031215610f4f57610f4e610d7b565b5b6000610f5d84828501610dcd565b91505092915050565b60008060408385031215610f7d57610f7c610d7b565b5b6000610f8b85828601610d97565b9250506020610f9c85828601610d97565b9150509250929050565b7f4e487b7100000000000000000000000000000000000000000000000000000000600052602260045260246000fd5b60006002820490506001821680610fed57607f821691505b60208210810361100057610fff610fa6565b5b50919050565b7f4e487b7100000000000000000000000000000000000000000000000000000000600052601160045260246000fd5b600061104082610dac565b915061104b83610dac565b92508282101561105e5761105d611006565b5b828203905092915050565b600061107482610dac565b915061107f83610dac565b9250827fffffffffffffffffffffffffffffffffffffffffffffffffffffffffffffffff038211156110b4576110b3611006565b5b828201905092915050565b6000819050919050565b6000819050919050565b60006110ee6110e96110e4846110bf565b6110c9565b610dac565b9050919050565b6110fe816110d3565b82525050565b60006040820190506111196000830185610d51565b61112660208301846110f5565b9392505050565b61113681610e22565b811461114157600080fd5b50565b6000815190506111538161112d565b92915050565b60006020828403121561116f5761116e610d7b565b5b600061117d84828501611144565b9150509291505056fea2646970667358221220e69fa0322c08b5f4c0f3cfcc05048b432b66447b6526605c649cd0a71232540264736f6c634300080d0033",
  "immutableReferences": {},
  "source": "// SPDX-License-Identifier: MIT\npragma solidity >=0.4.22 <0.9.0;\n\nimport \"./ConvertLib.sol\";\nimport \"./ErrorsLib.sol\";\nimport \"./ERC20.sol\";\n\ncontract BossCoin is ERC20 {\n\n  address public minter;\n  \n  mapping (address => uint) public balances;\n  mapping(address => mapping(address => uint)) public allowance;\n  \n  string public name = \"BossCoin\";\n  string public symbol = \"bossc\";\n  // 18 is default amount of decimals\n  // uint8 public decimals = 18;\n  uint8 public decimals = 0;\n\n  event FinalBossWebRegistration(address indexed _to);\n  event ParadoxTrainingWin(address indexed _to);\n\n  constructor() {\n    minter = tx.origin;\n    // 120520000 = Amount of ETH in circulation as of 11/2022\n    // Bitcoin has about 23 million coins in circulation\n    balances[minter] = 40000000;\n  }\n\n  function totalSupply() external view returns (uint) {\n    return balances[minter];\n  }\n\n  function approve(address spender, uint amount) external returns (bool) {\n        allowance[msg.sender][spender] = amount;\n        emit Approval(msg.sender, spender, amount);\n        return true;\n  }\n\n  function balanceOf(address account) public view returns (uint) {\n        return balances[account];\n  }\n\n  function transfer(address recipient, uint amount) external returns (bool) {\n        balances[minter] -= amount;\n        balances[recipient] += amount;\n        emit Transfer(minter, recipient, amount);\n        return true;\n  }\n\n  function transferFrom(\n        address sender,\n        address recipient,\n        uint amount\n    ) external returns (bool) {\n        // allowance[sender][msg.sender] -= amount;\n        balances[sender] -= amount;\n        balances[recipient] += amount;\n        emit Transfer(sender, recipient, amount);\n        return true;\n    }\n  \n  function mint(uint amount) external returns (uint) {\n      emit Transfer(address(0), minter, amount);\n      balances[minter] += amount;\n      return balances[minter];\n  }\n\n  function burn(uint amount) external returns (uint) {\n      emit Transfer(minter, address(0), amount);\n      balances[minter] -= amount;\n      return balances[minter];\n  }\n\n  // Paradox Hazard Methods --\n\n  // When a Gamer wins the training level, they earn 1 baus.\n  // TODO: User can only earn this once.\n  // TODO: Test \n  // For Ganache, use accounts[8] for testing purpurses.\n  function trainingLevelWin(address reciever) public {\n    this.transfer(reciever, 10);\n    emit ParadoxTrainingWin(reciever);\n  }\n\n}\n",
  "sourcePath": "/Users/ferro/Desktop/BOSSCOIN/contracts/BossCoin.sol",
  "compiler": {
    "name": "solc",
    "version": "0.8.13+commit.abaa5c0e.Emscripten.clang"
  },
  "schemaVersion": "3.4.10",
  "updatedAt": "2022-12-04T20:36:27.732Z",
  "networkType": "ethereum",
  "devdoc": {
    "kind": "dev",
    "methods": {},
    "version": 1
  },
  "userdoc": {
    "kind": "user",
    "methods": {},
    "version": 1
  }
}