{
  "contractName": "BossCoin",
  "abi": [
    {
      "inputs": [],
      "stateMutability": "nonpayable",
      "type": "constructor"
    },
    {
      "inputs": [
        {
          "internalType": "uint256",
          "name": "requested",
          "type": "uint256"
        },
        {
          "internalType": "uint256",
          "name": "available",
          "type": "uint256"
        }
      ],
      "name": "MinterNotEnoughFunds",
      "type": "error"
    },
    {
      "inputs": [
        {
          "internalType": "uint256",
          "name": "requested",
          "type": "uint256"
        },
        {
          "internalType": "uint256",
          "name": "available",
          "type": "uint256"
        }
      ],
      "name": "UserNotEnoughFunds",
      "type": "error"
    },
    {
      "anonymous": false,
      "inputs": [
        {
          "indexed": true,
          "internalType": "address",
          "name": "_from",
          "type": "address"
        },
        {
          "indexed": true,
          "internalType": "address",
          "name": "_to",
          "type": "address"
        },
        {
          "indexed": false,
          "internalType": "uint256",
          "name": "_value",
          "type": "uint256"
        }
      ],
      "name": "CoinTransferFromMinter",
      "type": "event"
    },
    {
      "anonymous": false,
      "inputs": [
        {
          "indexed": true,
          "internalType": "address",
          "name": "_from",
          "type": "address"
        },
        {
          "indexed": true,
          "internalType": "address",
          "name": "_to",
          "type": "address"
        },
        {
          "indexed": false,
          "internalType": "uint256",
          "name": "_value",
          "type": "uint256"
        }
      ],
      "name": "CoinTransferFromUser",
      "type": "event"
    },
    {
      "anonymous": false,
      "inputs": [
        {
          "indexed": true,
          "internalType": "address",
          "name": "_to",
          "type": "address"
        }
      ],
      "name": "FinalBossWebRegistration",
      "type": "event"
    },
    {
      "anonymous": false,
      "inputs": [
        {
          "indexed": true,
          "internalType": "address",
          "name": "_to",
          "type": "address"
        }
      ],
      "name": "ParadoxTrainingWin",
      "type": "event"
    },
    {
      "inputs": [],
      "name": "minter",
      "outputs": [
        {
          "internalType": "address",
          "name": "",
          "type": "address"
        }
      ],
      "stateMutability": "view",
      "type": "function",
      "constant": true
    },
    {
      "inputs": [
        {
          "internalType": "address",
          "name": "reciever",
          "type": "address"
        },
        {
          "internalType": "uint256",
          "name": "amount",
          "type": "uint256"
        }
      ],
      "name": "mintCoins",
      "outputs": [
        {
          "internalType": "uint256",
          "name": "",
          "type": "uint256"
        }
      ],
      "stateMutability": "nonpayable",
      "type": "function"
    },
    {
      "inputs": [
        {
          "internalType": "address",
          "name": "reciever",
          "type": "address"
        },
        {
          "internalType": "uint256",
          "name": "amount",
          "type": "uint256"
        }
      ],
      "name": "deleteCoins",
      "outputs": [
        {
          "internalType": "uint256",
          "name": "",
          "type": "uint256"
        }
      ],
      "stateMutability": "nonpayable",
      "type": "function"
    },
    {
      "inputs": [
        {
          "internalType": "address",
          "name": "addr",
          "type": "address"
        }
      ],
      "name": "getBalance",
      "outputs": [
        {
          "internalType": "uint256",
          "name": "",
          "type": "uint256"
        }
      ],
      "stateMutability": "view",
      "type": "function",
      "constant": true
    },
    {
      "inputs": [
        {
          "internalType": "address",
          "name": "reciever",
          "type": "address"
        },
        {
          "internalType": "uint256",
          "name": "amount",
          "type": "uint256"
        }
      ],
      "name": "sendCoinFromMinter",
      "outputs": [],
      "stateMutability": "nonpayable",
      "type": "function"
    },
    {
      "inputs": [
        {
          "internalType": "address",
          "name": "sender",
          "type": "address"
        },
        {
          "internalType": "address",
          "name": "reciever",
          "type": "address"
        },
        {
          "internalType": "uint256",
          "name": "amount",
          "type": "uint256"
        }
      ],
      "name": "sendCoinFromUser",
      "outputs": [],
      "stateMutability": "nonpayable",
      "type": "function"
    },
    {
      "inputs": [
        {
          "internalType": "address",
          "name": "reciever",
          "type": "address"
        }
      ],
      "name": "finalBossWebRegistration",
      "outputs": [],
      "stateMutability": "nonpayable",
      "type": "function"
    },
    {
      "inputs": [
        {
          "internalType": "address",
          "name": "reciever",
          "type": "address"
        }
      ],
      "name": "trainingLevelWin",
      "outputs": [],
      "stateMutability": "nonpayable",
      "type": "function"
    }
  ],
  "bytecode": "0x608060405234801561001057600080fd5b50336000806101000a81548173ffffffffffffffffffffffffffffffffffffffff021916908373ffffffffffffffffffffffffffffffffffffffff16021790555062989680600160008060009054906101000a900473ffffffffffffffffffffffffffffffffffffffff1673ffffffffffffffffffffffffffffffffffffffff1673ffffffffffffffffffffffffffffffffffffffff16815260200190815260200160002081905550610d99806100c86000396000f3fe608060405234801561001057600080fd5b50600436106100885760003560e01c8063c24e7d5f1161005b578063c24e7d5f14610127578063cdb695ed14610143578063eb52ed881461015f578063f8b2cb4f1461017b57610088565b8063075461721461008d5780635a448b03146100ab57806360c09dfa146100c7578063b7fde9da146100f7575b600080fd5b6100956101ab565b6040516100a29190610a43565b60405180910390f35b6100c560048036038101906100c09190610ac5565b6101cf565b005b6100e160048036038101906100dc9190610b18565b6103aa565b6040516100ee9190610b67565b60405180910390f35b610111600480360381019061010c9190610b18565b6104a3565b60405161011e9190610b67565b60405180910390f35b610141600480360381019061013c9190610b18565b61059c565b005b61015d60048036038101906101589190610b82565b610851565b005b61017960048036038101906101749190610b82565b610905565b005b61019560048036038101906101909190610b82565b6109b9565b6040516101a29190610b67565b60405180910390f35b60008054906101000a900473ffffffffffffffffffffffffffffffffffffffff1681565b80600160008573ffffffffffffffffffffffffffffffffffffffff1673ffffffffffffffffffffffffffffffffffffffff1681526020019081526020016000205410156102945780600160003373ffffffffffffffffffffffffffffffffffffffff1673ffffffffffffffffffffffffffffffffffffffff168152602001908152602001600020546040517f32f5b05800000000000000000000000000000000000000000000000000000000815260040161028b929190610baf565b60405180910390fd5b80600160008573ffffffffffffffffffffffffffffffffffffffff1673ffffffffffffffffffffffffffffffffffffffff16815260200190815260200160002060008282546102e39190610c07565b9250508190555080600160008473ffffffffffffffffffffffffffffffffffffffff1673ffffffffffffffffffffffffffffffffffffffff16815260200190815260200160002060008282546103399190610c3b565b925050819055508173ffffffffffffffffffffffffffffffffffffffff168373ffffffffffffffffffffffffffffffffffffffff167fc3f93a04ff52378960f47554d21b307acad33a4defcaf6620cad9a3a3034e8798360405161039d9190610b67565b60405180910390a3505050565b60008060009054906101000a900473ffffffffffffffffffffffffffffffffffffffff1673ffffffffffffffffffffffffffffffffffffffff163373ffffffffffffffffffffffffffffffffffffffff161461040557600080fd5b81600160008573ffffffffffffffffffffffffffffffffffffffff1673ffffffffffffffffffffffffffffffffffffffff16815260200190815260200160002060008282546104549190610c07565b92505081905550600160008473ffffffffffffffffffffffffffffffffffffffff1673ffffffffffffffffffffffffffffffffffffffff16815260200190815260200160002054905092915050565b60008060009054906101000a900473ffffffffffffffffffffffffffffffffffffffff1673ffffffffffffffffffffffffffffffffffffffff163373ffffffffffffffffffffffffffffffffffffffff16146104fe57600080fd5b81600160008573ffffffffffffffffffffffffffffffffffffffff1673ffffffffffffffffffffffffffffffffffffffff168152602001908152602001600020600082825461054d9190610c3b565b92505081905550600160008473ffffffffffffffffffffffffffffffffffffffff1673ffffffffffffffffffffffffffffffffffffffff16815260200190815260200160002054905092915050565b60008054906101000a900473ffffffffffffffffffffffffffffffffffffffff1673ffffffffffffffffffffffffffffffffffffffff163373ffffffffffffffffffffffffffffffffffffffff16146105f457600080fd5b80600160008060009054906101000a900473ffffffffffffffffffffffffffffffffffffffff1673ffffffffffffffffffffffffffffffffffffffff1673ffffffffffffffffffffffffffffffffffffffff1681526020019081526020016000205410156106fb5780600160008060009054906101000a900473ffffffffffffffffffffffffffffffffffffffff1673ffffffffffffffffffffffffffffffffffffffff1673ffffffffffffffffffffffffffffffffffffffff168152602001908152602001600020546040517f96fbcec40000000000000000000000000000000000000000000000000000000081526004016106f2929190610baf565b60405180910390fd5b80600160008060009054906101000a900473ffffffffffffffffffffffffffffffffffffffff1673ffffffffffffffffffffffffffffffffffffffff1673ffffffffffffffffffffffffffffffffffffffff168152602001908152602001600020600082825461076b9190610c07565b9250508190555080600160008473ffffffffffffffffffffffffffffffffffffffff1673ffffffffffffffffffffffffffffffffffffffff16815260200190815260200160002060008282546107c19190610c3b565b925050819055508173ffffffffffffffffffffffffffffffffffffffff1660008054906101000a900473ffffffffffffffffffffffffffffffffffffffff1673ffffffffffffffffffffffffffffffffffffffff167fe1a14d1f1fae83668deaaf65b508c99618ae4070243cfc2dc7440e615bbcf34c836040516108459190610b67565b60405180910390a35050565b3073ffffffffffffffffffffffffffffffffffffffff1663c24e7d5f8260016040518363ffffffff1660e01b815260040161088d929190610cd6565b600060405180830381600087803b1580156108a757600080fd5b505af11580156108bb573d6000803e3d6000fd5b505050508073ffffffffffffffffffffffffffffffffffffffff167fc786b9d42b463fb1a1ce1fe3aa965765d57f71e238e6f8c90e7f5b3b2d1dd03b60405160405180910390a250565b3073ffffffffffffffffffffffffffffffffffffffff1663c24e7d5f82600a6040518363ffffffff1660e01b8152600401610941929190610d3a565b600060405180830381600087803b15801561095b57600080fd5b505af115801561096f573d6000803e3d6000fd5b505050508073ffffffffffffffffffffffffffffffffffffffff167fe377e41a6266b9e40bd1b61e0fdb26eee6d0142682ad3a76751e8bddd466937960405160405180910390a250565b6000600160008373ffffffffffffffffffffffffffffffffffffffff1673ffffffffffffffffffffffffffffffffffffffff168152602001908152602001600020549050919050565b600073ffffffffffffffffffffffffffffffffffffffff82169050919050565b6000610a2d82610a02565b9050919050565b610a3d81610a22565b82525050565b6000602082019050610a586000830184610a34565b92915050565b600080fd5b610a6c81610a22565b8114610a7757600080fd5b50565b600081359050610a8981610a63565b92915050565b6000819050919050565b610aa281610a8f565b8114610aad57600080fd5b50565b600081359050610abf81610a99565b92915050565b600080600060608486031215610ade57610add610a5e565b5b6000610aec86828701610a7a565b9350506020610afd86828701610a7a565b9250506040610b0e86828701610ab0565b9150509250925092565b60008060408385031215610b2f57610b2e610a5e565b5b6000610b3d85828601610a7a565b9250506020610b4e85828601610ab0565b9150509250929050565b610b6181610a8f565b82525050565b6000602082019050610b7c6000830184610b58565b92915050565b600060208284031215610b9857610b97610a5e565b5b6000610ba684828501610a7a565b91505092915050565b6000604082019050610bc46000830185610b58565b610bd16020830184610b58565b9392505050565b7f4e487b7100000000000000000000000000000000000000000000000000000000600052601160045260246000fd5b6000610c1282610a8f565b9150610c1d83610a8f565b925082821015610c3057610c2f610bd8565b5b828203905092915050565b6000610c4682610a8f565b9150610c5183610a8f565b9250827fffffffffffffffffffffffffffffffffffffffffffffffffffffffffffffffff03821115610c8657610c85610bd8565b5b828201905092915050565b6000819050919050565b6000819050919050565b6000610cc0610cbb610cb684610c91565b610c9b565b610a8f565b9050919050565b610cd081610ca5565b82525050565b6000604082019050610ceb6000830185610a34565b610cf86020830184610cc7565b9392505050565b6000819050919050565b6000610d24610d1f610d1a84610cff565b610c9b565b610a8f565b9050919050565b610d3481610d09565b82525050565b6000604082019050610d4f6000830185610a34565b610d5c6020830184610d2b565b939250505056fea2646970667358221220dfc6ad27614d88e8262729ba08334017322d56b2054bd65d3af921626741881464736f6c634300080d0033",
  "immutableReferences": {},
  "source": "// SPDX-License-Identifier: MIT\npragma solidity >=0.4.22 <0.9.0;\n\nimport \"./ConvertLib.sol\";\nimport \"./ErrorsLib.sol\";\n\ncontract BossCoin {\n  address public minter;\n  mapping (address => uint) balances;\n\n  event CoinTransferFromMinter(address indexed _from, address indexed _to, uint256 _value);\n  event CoinTransferFromUser(address indexed _from, address indexed _to, uint256 _value);\n  event FinalBossWebRegistration(address indexed _to);\n  event ParadoxTrainingWin(address indexed _to);\n\n  constructor() {\n    minter = msg.sender;\n    balances[minter] = 10000000;\n  }\n\n  // Minter Methods\n  // Only the Minter can use Functions with this modifier.\n  modifier onlyMinter() {\n    require(msg.sender == minter);\n    _;\n  }\n\n  // Add BossCoins to the Minter Account (original contract creating account)\n  function mintCoins(address reciever, uint amount) public onlyMinter returns(uint) {\n    balances[reciever] += amount;\n    return balances[reciever];\n  }\n\n  // Delete Bosscoins from Minter Account\n  function deleteCoins(address reciever, uint amount) public onlyMinter returns(uint) {\n    balances[reciever] -= amount;\n    return balances[reciever];\n  }\n\n\tfunction getBalance(address addr) public view returns(uint) {\n    return balances[addr];\n\t}\n\n  // Used for sending BossCoin from Minter to User\n  // TODO: Test \n  function sendCoinFromMinter(address reciever, uint amount) public onlyMinter {\n    if(balances[minter] < amount) {\n      revert ErrorsLib.MinterNotEnoughFunds(amount, balances[minter]);\n    }\n    balances[minter] -= amount;\n    balances[reciever] += amount;\n    emit CoinTransferFromMinter(minter, reciever, amount);\n  }\n\n  // Used for sending BossCoin from User to User\n  // Used accounts[1] & accounts[2] for testing.\n  // TODO: Test \n  function sendCoinFromUser(address sender, address reciever, uint amount) public {\n    if(balances[sender] < amount) {\n      revert ErrorsLib.UserNotEnoughFunds(amount, balances[msg.sender]);\n    }\n    balances[sender] -= amount;\n    balances[reciever] += amount;\n    emit CoinTransferFromUser(sender, reciever, amount);\n  }\n\n  // FinalBossAR Methods --\n\n  // When a User registers for FinalBossAR.com, they have the option of\n  // recieving 1 baus\n  // TODO: User can only earn this once.\n  // TODO: Test \n  // For Ganache, use account[9] for testing purpurses.\n  function finalBossWebRegistration(address reciever) public {\n    this.sendCoinFromMinter(reciever, 1);\n    emit FinalBossWebRegistration(reciever);\n  }\n\n  // Paradox Hazard Methods --\n\n  // When a Gamer wins the training level, they earn 1 baus.\n  // TODO: User can only earn this once.\n  // TODO: Test \n  // For Ganache, use accounts[8] for testing purpurses.\n  function trainingLevelWin(address reciever) public {\n    this.sendCoinFromMinter(reciever, 10);\n    emit ParadoxTrainingWin(reciever);\n  }\n\n}\n",
  "sourcePath": "/Users/ferro/Desktop/BOSSCOIN/contracts/BossCoin.sol",
  "compiler": {
    "name": "solc",
    "version": "0.8.13+commit.abaa5c0e.Emscripten.clang"
  },
  "schemaVersion": "3.4.10",
  "updatedAt": "2022-11-03T21:04:19.329Z",
  "networkType": "ethereum",
  "devdoc": {
    "kind": "dev",
    "methods": {},
    "version": 1
  },
  "userdoc": {
    "kind": "user",
    "methods": {},
    "version": 1
  }
}